:020000040800F2
:100000000050002059070008F5060008FD0600080A
:10001000050700080D07000815070008000000008C
:100020000000000000000000000000001D070008A4
:1000300029070008000000003507000841070008F4
:10004000A1070008A1070008A1070008A1070008F0
:10005000A1070008A1070008A1070008A1070008E0
:10006000A1070008A1070008A1070008A1070008D0
:10007000A1070008A1070008A1070008A1070008C0
:10008000A1070008A1070008A1070008A1070008B0
:10009000A1070008A1070008A1070008A1070008A0
:1000A000A1070008A1070008A1070008A107000890
:1000B000A1070008A1070008A1070008A107000880
:1000C000A1070008A1070008A1070008A107000870
:1000D000A1070008A1070008A1070008A107000860
:1000E000A1070008A1070008A10700080000000000
:1000F0000000000000000000000000000000000000
:0C01000000000000000000005FF808F1A3
:10010C0010B5054C237833B9044B13B10448AFF345
:10011C0000800123237010BD0C00002000000000A3
:10012C00002F000808B5034B1BB103490348AFF37C
:10013C00008008BD0000000010000020002F000807
:10014C0080B500AF00F028FB00F096F800F03EF907
:10015C0000F0D8F800F00CF93D4800F067FD0221E2
:10016C003B4800F076FE3B4B03221A61394B0022D0
:10017C009A60384B0022DA60364B40F201121A605A
:10018C00354B01221A62344B00225A61324B002249
:10019C001A61314B46F260021A602F4B46F2600234
:1001AC005A602D4B2D4A9A602B4B2C4ADA602A4B05
:1001BC0000229A61284B0122DA612749244800F079
:1001CC006CFC00F04DF900F0A5F90621322000F08E
:1001DC0083F9234B5B781B021AB2214B1B781BB2A1
:1001EC0013431AB21F4B1A801D4BDB781B021AB239
:1001FC001B4B9B781BB213431AB21B4B1A80184B28
:10020C005B791B021AB2164B1B791BB213431AB241
:10021C00164B1A800A2000F021FB124BB3F9003068
:10022C00DAB2134B1A70104BB3F90030DAB2104B30
:10023C005A700E4BB3F90030DAB20D4B9A700D4B6D
:10024C000B4A0449024800F035FD00BFBDE700BF72
:10025C0028000020A4000020BC000020E0FF1F00AC
:10026C00EC000020F2000020F4000020F60000203A
:10027C00E8000020E400002080B590B000AF07F14A
:10028C00180328220021184602F008FE3B1D00220C
:10029C001A605A609A60DA601A610123BB614FF4EC
:1002AC008033FB6100233B620123BB6202237B632F
:1002BC004FF48033BB634FF4E013FB6307F1180377
:1002CC00184602F0EFF90346002B01D000F036F986
:1002DC000F237B600223BB600023FB604FF4806321
:1002EC003B6100237B613B1D0221184602F05CFC44
:1002FC000346002B01D000F021F900BF4037BD466A
:10030C0080BD000080B500AF174B184A1A60164B21
:10031C0009225A60144B00229A60134B0022DA60B7
:10032C00114B4FF410221A610F4B4FF480025A619B
:10033C000D4B00221A760C4B00225A760A4B0022E7
:10034C009A76094B0022DA76074B00221A77064B75
:10035C0000225A77044800F0A5FA0346002B01D07E
:10036C0000F0ECF800BF80BD2800002000640040C5
:10037C0080B500AF124B134A1A60114B124A5A60E7
:10038C000F4B00229A600E4B0022DA600C4B4FF49C
:10039C0080421A610A4B00225A61094B00229A6171
:1003AC00074B0022DA61064B00221A62044800F067
:1003BC00F5FF0346002B01D000F0C0F800BF80BD54
:1003CC005000002000540040801A060080B588B010
:1003DC0000AF07F1100300221A605A609A60DA60CD
:1003EC001D4B9B691C4A43F0200393611A4B9B697C
:1003FC0003F02003FB60FB68174B9B69164A43F024
:10040C0004039361144B9B6903F00403BB60BB684A
:10041C00114B9B69104A43F0080393610E4B9B6987
:10042C0003F008037B607B68002207210B4800F077
:10043C009DFF07233B6101237B610023BB610223EA
:10044C00FB6107F110031946044800F00BFE00BFD6
:10045C002037BD4680BD00BF00100240000801409F
:10046C0080B500AF0B4B00221A700A4B1B78194653
:10047C000A230122084801F047FC0346002B06D052
:10048C00044B1B780133DAB2024B1A70EDE700BF54
:10049C0000BF80BDEB0000205000002080B586B06E
:1004AC0002AF03460A46FB711346BB710023BB81A6
:1004BC00FB793B73BB797B7307F10C0264230093CC
:1004CC000223A621034801F0ADF800BF1037BD464A
:1004DC0080BD00BF5000002080B586B004AF03463D
:1004EC000A46FB711346BB71FB799AB2BB799BB27E
:1004FC00642102910193054B00930123A62104482A
:10050C0001F08EF900BF0837BD4680BDEC0000201D
:10051C005000002080B500AF01210020FFF7DCFF68
:10052C0000212D20FFF7BAFF08212D20FFF7B6FF81
:10053C0001213120FFF7B2FF00BF80BD80B400AFB6
:10054C0072B600BF00BFFDE780B485B000AF154B9D
:10055C009B69144A43F001039361124B9B6903F0AE
:10056C000103BB60BB680F4BDB690E4A43F0805341
:10057C00D3610C4BDB6903F080537B607B680A4BC7
:10058C005B68FB60FB6823F0E063FB60FB6843F097
:10059C000073FB60044AFB68536000BF1437BD4610
:1005AC0080BC7047001002400000014080B58AB04A
:1005BC0000AF786007F1140300221A605A609A6049
:1005CC00DA607B681B68254A934243D1244BDB6974
:1005DC00234A43F00073D361214BDB6903F00073B2
:1005EC003B613B691E4B9B691D4A43F008039361B9
:1005FC001B4B9B6903F00803FB60FB684FF4807393
:10060C007B610023BB610023FB6107F114031946D6
:10061C00144800F027FD4FF400737B610223BB618B
:10062C0003233B6207F1140319460E4800F01AFD30
:10063C000D4B5B687B627B6A23F4C0437B627B6AF5
:10064C0043F0E0637B627B6A43F480437B62064A3F
:10065C007B6A536000BF2837BD4680BD00640040F4
:10066C0000100240000C01400000014080B588B031
:10067C0000AF786007F1100300221A605A609A608C
:10068C00DA607B681B68154A934223D1144B9B6933
:10069C00134A43F008039361114B9B6903F0080361
:1006AC00FB60FB68C0233B6112237B610323FB616E
:1006BC0007F1100319460B4800F0D4FC084BDB691A
:1006CC00074A43F40013D361054BDB6903F40013B1
:1006DC00BB60BB6800BF2037BD4680BD00540040E6
:1006EC0000100240000C014080B400AF00BFFDE7D9
:1006FC0080B400AF00BFFDE780B400AF00BFFDE7E2
:10070C0080B400AF00BFFDE780B400AF00BFFDE7D1
:10071C0080B400AF00BFBD4680BC704780B400AF52
:10072C0000BFBD4680BC704780B400AF00BFBD4663
:10073C0080BC704780B500AF00F074F800BF80BD7E
:10074C0080B400AF00BFBD4680BC7047FFF7F8FF18
:10075C000B480C490C4A002302E0D458C450043313
:10076C00C4188C42F9D3094A094C002301E01360E8
:10077C000432A242FBD302F099FBFFF7E1FC704775
:10078C00000000200C0000204C2F00080C00002062
:10079C00FC000020FEE7000080B500AF084B1B6892
:1007AC00074A43F010031360032000F027FC0F20CE
:1007BC0000F008F8FFF7C8FE0023184680BD00BF04
:1007CC000020024080B582B000AF7860124B1A68EE
:1007DC00124B1B7819464FF47A73B3FBF1F3B2FB4F
:1007EC00F3F3184600F031FC0346002B01D0012333
:1007FC000EE07B680F2B0AD8002279684FF0FF308F
:10080C0000F007FC064A7B681360002300E001231C
:10081C0018460837BD4680BD0000002008000020A7
:10082C000400002080B400AF054B1B781A46054B22
:10083C001B681344034A136000BFBD4680BC70475D
:10084C0008000020F800002080B400AF024B1B68A9
:10085C001846BD4680BC7047F800002080B584B0B7
:10086C0000AF7860FFF7F0FFB8607B68FB60FB6857
:10087C00B3F1FF3F05D00A4B1B781A46FB681344B3
:10088C00FB6000BFFFF7E0FF0246BB68D31AFA68B3
:10089C009A42F7D800BF00BF1037BD4680BD00BFDD
:1008AC000800002080B584B000AF78607B68002B16
:1008BC0001D10123EDE07B6893F82030DBB2002BF3
:1008CC0002D17868FFF772FE7B681B681A687B6838
:1008DC001B6842F001021A60FFF7B6FFF86012E0E5
:1008EC00FFF7B2FF0246FB68D31A0A2B0BD97B68C1
:1008FC005B6A43F400327B685A627B68052283F89A
:10090C0020200123C5E07B681B685B6803F00103B2
:10091C00002BE5D07B681B681A687B681B6822F08B
:10092C0002021A60FFF790FFF86012E0FFF78CFFED
:10093C000246FB68D31A0A2B0BD97B685B6A43F41B
:10094C0000327B685A627B68052283F820200123E1
:10095C009FE07B681B685B6803F00203002BE5D10A
:10096C007B681B7E012B08D17B681B681A687B682F
:10097C001B6842F080021A6007E07B681B681A68EB
:10098C007B681B6822F080021A607B685B7E012BFF
:10099C0008D17B681B681A687B681B6842F04002B0
:1009AC001A6007E07B681B681A687B681B6822F07A
:1009BC0040021A607B689B7E012B08D17B681B6808
:1009CC001A687B681B6842F020021A6007E07B689B
:1009DC001B681A687B681B6822F020021A607B680F
:1009EC00DB7E012B08D17B681B681A687B681B684F
:1009FC0022F010021A6007E07B681B681A687B689B
:100A0C001B6842F010021A607B681B7F012B08D117
:100A1C007B681B681A687B681B6842F008021A60C6
:100A2C0007E07B681B681A687B681B6822F0080269
:100A3C001A607B685B7F012B08D17B681B681A6886
:100A4C007B681B6842F004021A6007E07B681B6835
:100A5C001A687B681B6822F004021A607B689A682B
:100A6C007B68DB681A437B681B691A437B685B698C
:100A7C0042EA03017B685B685A1E7B681B680A4369
:100A8C00DA617B6800225A627B68012283F820209D
:100A9C00002318461037BD4680BD80B487B000AF28
:100AAC00786039607B681B687B617B6893F82030C9
:100ABC00FB74FB7C012B03D0FB7C022B40F0AA8047
:100ACC007B69D3F8003243F001027B69C3F8002242
:100ADC003B685B6903F01F03012202FA03F3FB601E
:100AEC007B69D3F81C22FB68DB431A407B69C3F893
:100AFC001C223B68DB69002B23D17B69D3F80C22C9
:100B0C00FB68DB431A407B69C3F80C223B68DB684B
:100B1C0019043B685B689BB23A68526919437B695C
:100B2C00483243F832103B689B6819043B681B68D9
:100B3C009AB23B685B690A4379694833DB000B4422
:100B4C005A603B68DB69012B22D17B69D3F80C22FC
:100B5C00FB681A437B69C3F80C223B681B681904B9
:100B6C003B685B689BB23A68526919437B694832AF
:100B7C0043F832103B689B6819043B68DB689AB2F7
:100B8C003B685B690A4379694833DB000B445A6064
:100B9C003B689B69002B09D17B69D3F80422FB6865
:100BAC00DB431A407B69C3F8042207E07B69D3F866
:100BBC000422FB681A437B69C3F804223B681B6957
:100BCC00002B09D17B69D3F81422FB68DB431A4054
:100BDC007B69C3F8142207E07B69D3F81422FB6805
:100BEC001A437B69C3F814223B681B6A012B07D19B
:100BFC007B69D3F81C22FB681A437B69C3F81C225F
:100C0C007B69D3F8003223F001027B69C3F8002220
:100C1C00002306E07B685B6A43F480227B685A629F
:100C2C00012318461C37BD4680BC704780B584B084
:100C3C0000AF78607B6893F82030DBB2012B2ED1AB
:100C4C007B68022283F820207B681B681A687B680B
:100C5C001B6822F001021A60FFF7F6FDF86012E043
:100C6C00FFF7F2FD0246FB68D31A0A2B0BD97B68FF
:100C7C005B6A43F400327B685A627B68052283F816
:100C8C002020012312E07B681B685B6803F00103E2
:100C9C00002BE5D17B6800225A62002306E07B68BA
:100CAC005B6A43F400227B685A62012318461037B2
:100CBC00BD4680BD80B489B000AFF860B9607A6081
:100CCC003B60FB6893F82030FB77FB681B689B68E4
:100CDC00BB61FB7F012B03D0FB7F022B40F0AD806F
:100CEC00BB6903F08063002B0AD1BB6903F000637E
:100CFC00002B05D1BB6903F08053002B00F09580CD
:100D0C00BB691B0E03F003037B6101227B699A40D4
:100D1C003B681A60BB689B68002B0DD1BB681B68D5
:100D2C005A05BB68DB68F96809681A437B69183394
:100D3C001B010B441A600FE0BB685B68DA00BB68F0
:100D4C009B681A43BB68DB68F96809681A437B69BE
:100D5C0018331B010B441A60FB681968BB681A69CD
:100D6C007B6918331B010B4404331A60BB681B7D71
:100D7C00012B11D1FB681A687B6918331B011344D2
:100D8C0004331B68FA68116843F480727B6918336A
:100D9C001B010B4404331A607B6807331B781A065B
:100DAC007B6806331B781B041A437B6805331B785E
:100DBC001B0213437A68043212781046FA681168E1
:100DCC0043EA00027B691B010B4403F5C6731A60EE
:100DDC007B6803331B781A067B6802331B781B0471
:100DEC001A437B6801331B781B0213437A68127811
:100DFC001046FA68116843EA00027B691B010B4438
:100E0C0003F5C4731A60FB681A687B6918331B01FD
:100E1C0013441B68FA68116843F001027B691833AC
:100E2C001B010B441A6000230EE0FB685B6A43F461
:100E3C000012FB685A62012306E0FB685B6A43F40C
:100E4C008022FB685A62012318462437BD4680BCB9
:100E5C00704780B485B000AF786039607B6893F8D8
:100E6C002030FB73FB7B012B02D0FB7B022B09D1C7
:100E7C007B681B6859697B681B683A680A435A612E
:100E8C00002306E07B685B6A43F480227B685A622D
:100E9C00012318461437BD4680BC704780B485B01A
:100EAC0000AF78607B6803F00703FB600C4BDB68DA
:100EBC00BB60BA684FF6FF031340BB60FB681A02B5
:100ECC00BB68134343F0BF6343F40033BB60044A75
:100EDC00BB68D36000BF1437BD4680BC704700BFF1
:100EEC0000ED00E080B400AF044BDB681B0A03F09C
:100EFC0007031846BD4680BC704700BF00ED00E0FC
:100F0C0080B483B000AF03463960FB7197F90730AA
:100F1C00002B0ADB3B68DAB20C4997F90730120157
:100F2C00D2B20B4483F800230AE03B68DAB20849DA
:100F3C00FB7903F00F03043B1201D2B20B441A7677
:100F4C0000BF0C37BD4680BC704700BF00E100E01D
:100F5C0000ED00E080B489B000AFF860B9607A6051
:100F6C00FB6803F00703FB61FB69C3F10703042B68
:100F7C0028BF0423BB61FB690433062B02D9FB6930
:100F8C00033B00E000237B614FF0FF32BB6902FAA8
:100F9C0003F3DA43BB681A407B699A404FF0FF3188
:100FAC007B6901FA03F3D9437B680B401343184662
:100FBC002437BD4680BC704780B582B000AF7860E6
:100FCC007B68013BB3F1807F01D301230FE00A4A18
:100FDC007B68013B53600F214FF0FF30FFF790FF10
:100FEC00054B00229A60044B07221A600023184616
:100FFC000837BD4680BD00BF10E000E080B582B070
:10100C0000AF78607868FFF749FF00BF0837BD462E
:10101C0080BD80B586B000AF0346B9607A60FB73C3
:10102C0000237B61FFF75EFF78617A68B9687869A5
:10103C00FFF790FF024697F90F3011461846FFF75D
:10104C005FFF00BF1837BD4680BD80B582B000AFD2
:10105C0078607868FFF7B0FF034618460837BD463E
:10106C0080BD000080B48BB000AF78603960002385
:10107C007B6200233B6269E101227B6A02FA03F383
:10108C00FB613B681B68FA691340BB61BA69FB6979
:10109C009A4240F058813B685B689A4A93425ED012
:1010AC00984A934275D8984A934258D0964A93429C
:1010BC006FD8964A934252D0944A934269D8944A34
:1010CC0093424CD0924A934263D8924A934246D070
:1010DC00904A93425DD8122B2AD8122B59D801A2D0
:1010EC0052F823F06B110008451100085711000845
:1010FC00991100089F1100089F1100089F1100080A
:10110C009F1100089F1100089F1100089F110008F3
:10111C009F1100089F1100089F1100089F110008E3
:10112C009F1100089F1100084D1100086111000863
:10113C00794A934213D02CE03B68DB683B6229E090
:10114C003B68DB6804333B6224E03B68DB680833B4
:10115C003B621FE03B68DB680C333B621AE03B6888
:10116C009B68002B02D104233B6213E03B689B6815
:10117C00012B05D108233B627B68FA691A6109E0EF
:10118C0008233B627B68FA695A6103E000233B62E7
:10119C0000E000BFBB69FF2B01D87B6801E07B68D6
:1011AC0004337B61BB69FF2B02D87B6A9B0002E096
:1011BC007B6A083B9B003B617B691A680F213B698A
:1011CC0001FA03F3DB431A40396A3B6901FA03F372
:1011DC001A437B691A603B685B6803F08053002BF1
:1011EC0000F0B1804D4B9B694C4A43F00103936175
:1011FC004A4B9B6903F00103BB60BB68484A7B6A9E
:10120C009B08023352F82330FB607B6A03F0030324
:10121C009B000F2202FA03F3DB43FA681340FB60D6
:10122C007B68404A934213D07B683F4A93420DD06F
:10123C007B683E4A934207D07B683D4A934201D17A
:10124C00032306E0042304E0022302E0012300E070
:10125C0000237A6A02F0030292009340FA68134367
:10126C00FB602F497B6A9B080233FA6841F8232004
:10127C003B685B6803F48013002B06D02D4B9A68F7
:10128C002C49BB6913438B6006E02A4B9A68BB69F7
:10129C00DB43284913408B603B685B6803F4001305
:1012AC00002B06D0234BDA682249BB691343CB6071
:1012BC0006E0204BDA68BB69DB431E491340CB6068
:1012CC003B685B6803F40033002B06D0194B5A685B
:1012DC001849BB6913434B6006E0164B5A68BB694F
:1012EC00DB43144913404B603B685B6803F4803369
:1012FC00002B21D00F4B1A680E49BB6913430B60AE
:10130C0021E000BF0000321000003110000022105C
:10131C0000002110000012100000111000100240FB
:10132C000000014000080140000C01400010014089
:10133C0000140140000401400B4B1A68BB69DB43ED
:10134C00094913400B607B6A01337B623B681A6866
:10135C007B6A22FA03F3002B7FF48EAE00BF00BF32
:10136C002C37BD4680BC70470004014080B483B06C
:10137C0000AF78600B467B8013467B707B78002B2C
:10138C0003D07A887B681A6103E07B881A047B6837
:10139C001A6100BF0C37BD4680BC704780B584B065
:1013AC0000AF78607B68002B01D101232BE17B68B7
:1013BC0093F83D30DBB2002B06D17B68002283F81A
:1013CC003C207868FFF752F97B68242283F83D2093
:1013DC007B681B681A687B681B6822F001021A6024
:1013EC007B681B681A687B681B6842F400421A60B1
:1013FC007B681B681A687B681B6822F400421A60C1
:10140C0001F01AFDF8607B685B68814A934207D84B
:10141C00FB68804A934294BF01230023DBB206E0B1
:10142C00FB687D4A934294BF01230023DBB2002B5F
:10143C0001D00123E7E0FB68784AA2FB03239B0C55
:10144C00BB607B681B685B6823F03F017B681B6893
:10145C00BA680A435A607B681B681B6A23F03F0119
:10146C007B685B686A4A934202D8BB68013309E027
:10147C00BB684FF4967202FB03F3694AA2FB032389
:10148C009B0901337A6812680B4313627B681B68F3
:10149C00DB6923F44F4222F0FF027B685B685C49F6
:1014AC008B4219D8FB68591E7B685B685B00B1FBEB
:1014BC00F3F3591C40F6FC730B40002B0AD0FB686D
:1014CC00591E7B685B685B00B1FBF3F30133C3F31C
:1014DC000B0351E004234FE07B689B68002B11D178
:1014EC00FB68581E7B6859680B465B000B44B0FBCD
:1014FC00F3F30133C3F30B03002B0CBF01230023C5
:10150C00DBB212E0FB68581E7B6859680B469B00E7
:10151C000B4499000B44B0FBF3F30133C3F30B03FF
:10152C00002B0CBF01230023DBB2002B01D00123C5
:10153C0022E07B689B68002B0ED1FB68581E7B68F1
:10154C0059680B465B000B44B0FBF3F30133C3F358
:10155C000B0343F400430FE0FB68581E7B6859688B
:10156C000B469B000B4499000B44B0FBF3F3013387
:10157C00C3F30B0343F44043796809681343CB610D
:10158C007B681B681B6823F0C0017B68DA697B6889
:10159C001B6A1A437B681B680A431A607B681B68CA
:1015AC009B6823F4034323F0FF037A6811697A687C
:1015BC00D26811437A6812680B4393607B681B688E
:1015CC00DB6823F0FF017B685A697B689B691A43CF
:1015DC007B681B680A43DA607B681B681A687B6847
:1015EC001B6842F001021A607B6800221A647B6857
:1015FC00202283F83D207B6800221A637B6800223E
:10160C0083F83E20002318461037BD4680BD00BF2E
:10161C00A08601007F841E00FF083D0083DE1B4373
:10162C00D34D621080B588B002AFF8607A601A466C
:10163C000B467B8113463B81FFF706F97861FB680B
:10164C0093F83D30DBB2202B40F0E0807B690093B7
:10165C00192301227049F86800F0EEFD0346002BB7
:10166C0001D00223D3E0FB6893F83C30012B01D16D
:10167C000223CCE0FB68012283F83C20FB681B684A
:10168C001B6803F00103012B07D0FB681B681A6869
:10169C00FB681B6842F001021A60FB681B681A6841
:1016AC00FB681B6822F400621A60FB68212283F835
:1016BC003D20FB68102283F83E20FB6800221A6450
:1016CC00FB687A685A62FB683A895A85FB685B8DBD
:1016DC009AB2FB681A85FB68504ADA6279897B6991
:1016EC003A6AF86800F03EFC0346002B01D0012357
:1016FC008DE000233B61FB681B685B693B61FB6809
:10170C001B689B693B613B6966E07A69396AF868DA
:10171C0000F0ACFE0346002B0DD0FB681B6C042BB9
:10172C0007D1FB681B681A68FB681B6842F40072DF
:10173C001A6001236BE0FB685B6A1A78FB681B6814
:10174C001A61FB685B6A5A1CFB685A62FB685B8D0A
:10175C009BB2013B9AB2FB685A85FB681B8D013B1F
:10176C009AB2FB681A85FB681B685B6903F004037B
:10177C00042B1BD1FB681B8D002B17D0FB685B6AFD
:10178C001A78FB681B681A61FB685B6A5A1CFB6859
:10179C005A62FB685B8D9BB2013B9AB2FB685A851F
:1017AC00FB681B8D013B9AB2FB681A857A69396A12
:1017BC00F86800F0A3FE0346002B0DD0FB681B6CF1
:1017CC00042B07D1FB681B681A68FB681B6842F482
:1017DC0000721A6001231AE0FB681B8D002B94D158
:1017EC00FB681B681A68FB681B6842F400721A607D
:1017FC00FB68202283F83D20FB68002283F83E2002
:10180C00FB68002283F83C20002300E002231846EA
:10181C001837BD4680BD00BF020010000000FFFF5E
:10182C0080B58CB002AFF860084611461A460346E4
:10183C007B810B463B811346FB8000233B62FFF709
:10184C0003F87862FB6893F83D30DBB2202B40F054
:10185C0050827B6A0093192301228249F86800F0B8
:10186C00EBFC0346002B01D0022343E2FB6893F808
:10187C003C30012B01D102233CE2FB68012283F8AE
:10188C003C20FB681B681B6803F00103012B07D08D
:10189C00FB681B681A68FB681B6842F001021A603F
:1018AC00FB681B681A68FB681B6822F400621A60EC
:1018BC00FB68222283F83D20FB68402283F83E20FF
:1018CC00FB6800221A64FB683A6B5A62FB68BA8E9A
:1018DC005A85FB685B8D9AB2FB681A85FB68624A75
:1018EC00DA62F8883A8979897B6A0193BB6B009339
:1018FC000346F86800F0B8FB0346002B01D0012327
:10190C00F8E1FB681B8D002B13D10023FB61FB68F6
:10191C001B685B69FB61FB681B689B69FB61FB696E
:10192C00FB681B681A68FB681B6842F400721A603B
:10193C00CCE1FB681B8D012B1ED1FB681B681A6860
:10194C00FB681B6822F480621A6072B600BF002329
:10195C00BB61FB681B685B69BB61FB681B689B69AF
:10196C00BB61BB69FB681B681A68FB681B6842F4A7
:10197C0000721A6062B635E0FB681B8D022B1ED11B
:10198C00FB681B681A68FB681B6842F400621A60EB
:10199C0072B600BF00237B61FB681B685B697B61CF
:1019AC00FB681B689B697B617B69FB681B681A6819
:1019BC00FB681B6822F480621A6062B612E0FB6856
:1019CC001B681A68FB681B6842F480621A6000236B
:1019DC003B61FB681B685B693B61FB681B689B692F
:1019EC003B613B6972E1FB681B8D032B00F21F818D
:1019FC00FB681B8D012B23D17A6AB96BF86800F058
:101A0C00C5FD0346002B01D0012373E1FB681B6865
:101A1C001A69FB685B6AD2B21A70FB685B6A5A1C63
:101A2C00FB685A62FB681B8D013B9AB2FB681A85F6
:101A3C00FB685B8D9BB2013B9AB2FB685A8545E112
:101A4C00FB681B8D022B52D17B6A0093BB6B00226F
:101A5C000649F86800F0F0FB0346002B08D0012380
:101A6C0048E100BF020010000000FFFF040001006D
:101A7C0072B600BFFB681B681A68FB681B6842F4EF
:101A8C0000721A60FB681B681A69FB685B6AD2B249
:101A9C001A70FB685B6A5A1CFB685A62FB681B8DE8
:101AAC00013B9AB2FB681A85FB685B8D9BB2013BCC
:101ABC009AB2FB685A8562B600BFFB681B681A694C
:101ACC00FB685B6AD2B21A70FB685B6A5A1CFB68D3
:101ADC005A62FB681B8D013B9AB2FB681A85FB6846
:101AEC005B8D9BB2013B9AB2FB685A85EEE07B6A38
:101AFC000093BB6B00228149F86800F09DFB034604
:101B0C00002B01D00123F5E0FB681B681A68FB6809
:101B1C001B6822F480621A6072B600BFFB681B68F7
:101B2C001A69FB685B6AD2B21A70FB685B6A5A1C52
:101B3C00FB685A62FB681B8D013B9AB2FB681A85E5
:101B4C00FB685B8D9BB2013B9AB2FB685A856C4B70
:101B5C001B68DB086B4AA2FB03231A0A13469B0083
:101B6C001344DA00D31A3B623B6A013B3B623B6A8B
:101B7C00002B18D1FB6800221A63FB68202283F823
:101B8C003D20FB68002283F83E20FB681B6C43F071
:101B9C002002FB681A6462B600BFFB68002283F85F
:101BAC003C200123A6E0FB681B685B6903F004037F
:101BBC00042BD9D1FB681B681A68FB681B6842F4BC
:101BCC0000721A60FB681B681A69FB685B6AD2B208
:101BDC001A70FB685B6A5A1CFB685A62FB681B8DA7
:101BEC00013B9AB2FB681A85FB685B8D9BB2013B8B
:101BFC009AB2FB685A8562B600BFFB681B681A690B
:101C0C00FB685B6AD2B21A70FB685B6A5A1CFB6891
:101C1C005A62FB681B8D013B9AB2FB681A85FB6804
:101C2C005B8D9BB2013B9AB2FB685A854EE07A6A97
:101C3C00B96BF86800F0AAFC0346002B01D0012315
:101C4C0058E0FB681B681A69FB685B6AD2B21A70B1
:101C5C00FB685B6A5A1CFB685A62FB681B8D013B74
:101C6C009AB2FB681A85FB685B8D9BB2013B9AB2FA
:101C7C00FB685A85FB681B685B6903F00403042B43
:101C8C0024D1FB681B8D032B07D1FB681B681A68DA
:101C9C00FB681B6822F480621A60FB681B681A6977
:101CAC00FB685B6AD2B21A70FB685B6A5A1CFB68F1
:101CBC005A62FB681B8D013B9AB2FB681A85FB6864
:101CCC005B8D9BB2013B9AB2FB685A85FB681B8DFE
:101CDC00002B7FF488AEFB68202283F83D20FB6844
:101CEC00002283F83E20FB68002283F83C2000236E
:101CFC0000E0022318462837BD4680BD04000100D1
:101D0C000000002089B5F81480B58AB002AFF860E5
:101D1C007A603B600B467B81FEF796FDF8610023F1
:101D2C00BB61FB6893F83D30DBB2202B40F0118196
:101D3C00FB690093192301228849F86800F07CFAAA
:101D4C000346002B01D0022304E1FB6893F83C30DE
:101D5C00012B01D10223FDE0FB68012283F83C201A
:101D6C00FB681B681B6803F00103012B07D0FB68A1
:101D7C001B681A68FB681B6842F001021A60FB685A
:101D8C001B681A68FB681B6822F400621A60FB6807
:101D9C00242283F83D20FB6800221A64FB68704AF9
:101DAC00DA62FB681B681A68FB681B6842F4807275
:101DBC001A60FB6900933B6800224FF00111F86830
:101DCC0000F03AFA0346002B0DD0FB681B681B6829
:101DDC0003F48073B3F5807F03D1FB684FF400727A
:101DEC001A640323B6E07B89DBB21A46FB681B68D6
:101DFC0002F0FE021A61FEF727FDF861FB681B6812
:101E0C005B6903F00203022B0CBF01230023DBB23E
:101E1C00FB75FB681B685B6903F48063B3F5806F2B
:101E2C000CBF01230023DBB2BB7525E0FEF70CFDD4
:101E3C000246FB69D31A3A689A4202D33B68002BDC
:101E4C0003D1FB68A02283F83D20FB681B685B690B
:101E5C0003F00203022B0CBF01230023DBB2FB7542
:101E6C00FB681B685B6903F48063B3F5806F0CBF80
:101E7C0001230023DBB2BB75FB6893F83D30DBB26A
:101E8C00A02B05D0FB7D002B02D1BB7D002BCDD030
:101E9C00FB68202283F83D20FB681B685B6903F01C
:101EAC000203022B29D1FB681B681A68FB681B68AC
:101EBC0042F400721A6000233B61FB681B685B698B
:101ECC003B61FB681B689B693B613B69FB69009349
:101EDC00192301222149F86800F0AEF90346002BC2
:101EEC0001D0012336E0FB68202283F83D20FB68FB
:101EFC00002283F83C2000232CE0FB681B681A6846
:101F0C00FB681B6842F400721A60FB681B686FF474
:101F1C0080625A61FB690093192301220F49F8680A
:101F2C0000F08AF90346002B01D0012312E0BB69B3
:101F3C000133BB61BA697B689A42FFF432AFFB682C
:101F4C00202283F83D20FB68002283F83C200123EB
:101F5C0000E0022318462037BD4680BD0200100069
:101F6C000000FFFF80B588B002AFF8607A603B607C
:101F7C000B467B81FB68DB6A7B617B69082B06D097
:101F8C007B69012B03D07B6913F5803F08D1FB687B
:101F9C001B681A68FB681B6842F480721A600BE0BD
:101FAC00FB681B6B122B07D1FB681B681A68FB685C
:101FBC001B6842F480721A603B6800937B680022B5
:101FCC004FF00111F86800F037F90346002B0DD0E3
:101FDC00FB681B681B6803F48073B3F5807F03D127
:101FEC00FB684FF400721A64032335E0FB681B692D
:101FFC00B3F5804F08D17B89DBB21A46FB681B68AE
:10200C0002F0FE021A611BE07B89DB11DBB203F0EC
:10201C000603DBB263F00F03DAB2FB681B681A61CC
:10202C003B687A680E49F86800F080F90346002B8B
:10203C0001D0012310E07B89DAB2FB681B681A61BE
:10204C003B687A680749F86800F070F90346002B82
:10205C0001D0012300E0002318461837BD4680BD8F
:10206C00080001000200010080B588B002AFF860E2
:10207C00084611461A4603467B810B463B811346A4
:10208C00FB80FB681B681A68FB681B6842F4806263
:10209C001A60FB681B681A68FB681B6842F4807244
:1020AC001A607B6A00933B6A00224FF00111F868BA
:1020BC0000F0C2F80346002B0DD0FB681B681B68B0
:1020CC0003F48073B3F5807F03D1FB684FF4007287
:1020DC001A640323AAE07B89DBB21A46FB681B68EF
:1020EC0002F0FE021A617B6A3A6A5249F86800F003
:1020FC001DF90346002B01D0012397E000237B61DF
:10210C00FB681B685B697B61FB681B689B697B6177
:10211C007B697A6A396AF86800F0A8F90346002BE3
:10212C000DD0FB681B6C042B07D1FB681B681A686D
:10213C00FB681B6842F400721A60012376E0FB888E
:10214C00012B05D13B89DAB2FB681B681A6121E0CF
:10215C003B891B0A9BB2DAB2FB681B681A617A6A6C
:10216C00396AF86800F082F90346002B0DD0FB6841
:10217C001B6C042B07D1FB681B681A68FB681B6877
:10218C0042F400721A60012350E03B89DAB2FB681A
:10219C001B681A617A6A396AF86800F067F90346B5
:1021AC00002B0DD0FB681B6C042B07D1FB681B6844
:1021BC001A68FB681B6842F400721A60012335E050
:1021CC00FB681B681A68FB681B6842F480721A6013
:1021DC007B6A00933B6A00224FF00111F86800F013
:1021EC002BF80346002B0DD0FB681B681B6803F40F
:1021FC008073B3F5807F03D1FB684FF400721A64CF
:10220C00032313E07B89DBB243F00103DAB2FB68F2
:10221C001B681A617B6A3A6A0649F86800F086F80E
:10222C000346002B01D0012300E000231846183789
:10223C00BD4680BD0200010080B584B000AFF860DF
:10224C00B9603B601346FB7148E03B68B3F1FF3F5C
:10225C0044D0FEF7F9FA0246BB69D31A3A689A429F
:10226C0002D33B68002B39D1BB681B0CDBB2012BB2
:10227C000DD1FB681B685B69DA43BB6813409BB2EA
:10228C00002B0CBF01230023DBB21A460CE0FB68C9
:10229C001B689B69DA43BB6813409BB2002B0CBFD5
:1022AC0001230023DBB21A46FB799A4216D1FB6854
:1022BC0000221A63FB68202283F83D20FB68002271
:1022CC0083F83E20FB681B6C43F02002FB681A6409
:1022DC00FB68002283F83C20012323E0BB681B0C25
:1022EC00DBB2012B0DD1FB681B685B69DA43BB6861
:1022FC0013409BB2002B0CBF01230023DBB21A4608
:10230C000CE0FB681B689B69DA43BB6813409BB20B
:10231C00002B0CBF01230023DBB21A46FB799A4237
:10232C0093D0002318461037BD4680BD80B584B0CD
:10233C0000AFF860B9607A603B6071E0FB681B68C5
:10234C005B6903F48063B3F5806F23D1FB681B6872
:10235C001A68FB681B6842F400721A60FB681B6801
:10236C006FF480625A61FB6800221A63FB682022BA
:10237C0083F83D20FB68002283F83E20FB681B6C31
:10238C0043F00402FB681A64FB68002283F83C20CB
:10239C00012367E07B68B3F1FF3F41D0FEF754FAAD
:1023AC0002463B68D31A7A689A4202D37B68002BA8
:1023BC0036D1BB681B0CDBB2012B0CD1FB681B6844
:1023CC005B69DA43BB6813409BB2002B14BF01233B
:1023DC000023DBB20BE0FB681B689B69DA43BB682C
:1023EC0013409BB2002B14BF01230023DBB2002B44
:1023FC0016D0FB6800221A63FB68202283F83D206C
:10240C00FB68002283F83E20FB681B6C43F0200223
:10241C00FB681A64FB68002283F83C20012321E04E
:10242C00BB681B0CDBB2012B0CD1FB681B685B6916
:10243C00DA43BB6813409BB2002B14BF012300236B
:10244C00DBB20BE0FB681B689B69DA43BB6813408B
:10245C009BB2002B14BF01230023DBB2002B7FF4B3
:10246C006DAF002318461037BD4680BD80B584B0D3
:10247C0000AFF860B9607A6034E0F86800F0E3F817
:10248C000346002B01D0012334E0BB68B3F1FF3FBE
:10249C0028D0FEF7D9F902467B68D31ABA689A425B
:1024AC0002D3BB68002B1DD1FB681B685B6903F072
:1024BC008003802B16D0FB6800221A63FB68202255
:1024CC0083F83D20FB68002283F83E20FB681B6CE0
:1024DC0043F02002FB681A64FB68002283F83C205E
:1024EC00012307E0FB681B685B6903F08003802B0A
:1024FC00C3D1002318461037BD4680BD80B584B0CB
:10250C0000AFF860B9607A6034E0F86800F09BF8CE
:10251C000346002B01D0012334E0BB68B3F1FF3F2D
:10252C0028D0FEF791F902467B68D31ABA689A4212
:10253C0002D3BB68002B1DD1FB681B685B6903F0E1
:10254C000403042B16D0FB6800221A63FB682022BC
:10255C0083F83D20FB68002283F83E20FB681B6C4F
:10256C0043F02002FB681A64FB68002283F83C20CD
:10257C00012307E0FB681B685B6903F00403042B71
:10258C00C3D1002318461037BD4680BD80B584B03A
:10259C0000AFF860B9607A6049E0FB681B685B6962
:1025AC0003F01003102B19D1FB681B686FF010029D
:1025BC005A61FB6800221A63FB68202283F83D20D5
:1025CC00FB68002283F83E20FB681A6CFB681A64D7
:1025DC00FB68002283F83C20012330E0FEF734F93D
:1025EC0002467B68D31ABA689A4202D3BB68002BA6
:1025FC001DD1FB681B685B6903F04003402B16D0B0
:10260C00FB6800221A63FB68202283F83D20FB68DC
:10261C00002283F83E20FB681B6C43F02002FB6811
:10262C001A64FB68002283F83C20012307E0FB6856
:10263C001B685B6903F04003402BAED100231846A6
:10264C001037BD4680BD80B483B000AF78607B6826
:10265C001B685B6903F48063B3F5806F1BD17B68E7
:10266C001B686FF480625A617B6800221A637B6876
:10267C00202283F83D207B68002283F83E207B6873
:10268C001B6C43F004027B681A647B68002283F89D
:10269C003C20012300E0002318460C37BD4680BCCB
:1026AC007047000080B586B000AF78607B68002B67
:1026BC0001D1012372E27B681B6803F00103002B3C
:1026CC0000F08780924B5B6803F00C03042B0CD05A
:1026DC008F4B5B6803F00C03082B12D18C4B5B689F
:1026EC0003F48033B3F5803F0BD1894B1B6803F4A3
:1026FC000033002B6CD07B685B68002B68D1012306
:10270C004CE27B685B68B3F5803F06D1804B1B685D
:10271C007F4A43F4803313602EE07B685B68002BA8
:10272C000CD17B4B1B687A4A23F480331360784BB3
:10273C001B68774A23F4802313601DE07B685B6879
:10274C00B3F5A02F0CD1724B1B68714A43F4802354
:10275C0013606F4B1B686E4A43F4803313600BE0BD
:10276C006B4B1B686A4A23F480331360684B1B68FD
:10277C00674A23F4802313607B685B68002B13D0BB
:10278C00FEF762F8386108E0FEF75EF802463B6936
:10279C00D31A642B01D9032300E25D4B1B6803F4AD
:1027AC000033002BF0D014E0FEF74EF8386108E04F
:1027BC00FEF74AF802463B69D31A642B01D903236E
:1027CC00ECE1534B1B6803F40033002BF0D100E019
:1027DC0000BF7B681B6803F00203002B63D04C4BDB
:1027EC005B6803F00C03002B0BD0494B5B6803F0C8
:1027FC000C03082B1CD1464B5B6803F48033002B75
:10280C0016D1434B1B6803F00203002B05D07B68E9
:10281C001B69012B01D00123C0E13D4B1B6823F048
:10282C00F8027B685B69DB00394913430B603AE0C3
:10283C007B681B69002B20D0364B01221A60FEF7F7
:10284C0003F8386108E0FDF7FFFF02463B69D31A35
:10285C00022B01D90323A1E12D4B1B6803F00203CA
:10286C00002BF0D02A4B1B6823F0F8027B685B69C5
:10287C00DB00274913430B6015E0264B00221A603E
:10288C00FDF7E2FF386108E0FDF7DEFF02463B6929
:10289C00D31A022B01D9032380E11D4B1B6803F0D3
:1028AC000203002BF0D17B681B6803F00803002B9C
:1028BC003AD07B689B69002B19D0174B01221A6008
:1028CC00FDF7C2FF386108E0FDF7BEFF02463B6929
:1028DC00D31A022B01D9032360E10D4B5B6A03F081
:1028EC000203002BF0D0012000F0BAFA1CE00A4BD6
:1028FC0000221A60FDF7A8FF38610FE0FDF7A4FF76
:10290C0002463B69D31A022B08D9032346E100BFC8
:10291C00001002400000424280044242924B5B6A2B
:10292C0003F00203002BE9D17B681B6803F004035E
:10293C00002B00F0A6800023FB758B4BDB6903F0AA
:10294C008053002B0DD1884BDB69874A43F08053B1
:10295C00D361854BDB6903F08053BB60BB680123FB
:10296C00FB75824B1B6803F48073002B18D17F4BD3
:10297C001B687E4A43F480731360FDF765FF386172
:10298C0008E0FDF761FF02463B69D31A642B01D9BD
:10299C00032303E1754B1B6803F48073002BF0D009
:1029AC007B68DB68012B06D16F4B1B6A6E4A43F0C8
:1029BC00010313622DE07B68DB68002B0CD16A4BA2
:1029CC001B6A694A23F001031362674B1B6A664A50
:1029DC0023F0040313621CE07B68DB68052B0CD12D
:1029EC00614B1B6A604A43F0040313625E4B1B6A23
:1029FC005D4A43F0010313620BE05B4B1B6A5A4ABE
:102A0C0023F001031362584B1B6A574A23F004034B
:102A1C0013627B68DB68002B15D0FDF715FF38615E
:102A2C000AE0FDF711FF02463B69D31A41F28832E6
:102A3C00934201D90323B1E04B4B1B6A03F0020311
:102A4C00002BEED014E0FDF7FFFE38610AE0FDF735
:102A5C00FBFE02463B69D31A41F28832934201D9FC
:102A6C0003239BE0404B1B6A03F00203002BEED1C7
:102A7C00FB7D012B05D13C4BDB693B4A23F080539A
:102A8C00D3617B68DB69002B00F08780364B5B6879
:102A9C0003F00C03082B61D07B68DB69022B46D159
:102AAC00334B00221A60FDF7CFFE386108E0FDF7CA
:102ABC00CBFE02463B69D31A022B01D903236DE0EE
:102ACC00294B1B6803F00073002BF0D17B681B6A49
:102ADC00B3F5803F08D1244B5B6823F400327B684C
:102AEC009B68214913434B601F4B5B6823F47412A2
:102AFC007B68196A7B685B6A0B431B4913434B6009
:102B0C001B4B01221A60FDF79FFE386108E0FDF7B0
:102B1C009BFE02463B69D31A022B01D903233DE0ED
:102B2C00114B1B6803F00073002BF0D035E0104BF9
:102B3C0000221A60FDF788FE386108E0FDF784FE7C
:102B4C0002463B69D31A022B01D9032326E0064B1C
:102B5C001B6803F00073002BF0D11EE07B68DB696F
:102B6C00012B07D1012319E0001002400070004036
:102B7C00600042420B4B5B68FB60FB6803F48032E5
:102B8C007B681B6A9A4206D1FB6803F470127B685F
:102B9C005B6A9A4201D0012300E0002318461837E3
:102BAC00BD4680BD0010024080B584B000AF786097
:102BBC0039607B68002B01D10123D0E06A4B1B6884
:102BCC0003F007033A689A4210D9674B1B6823F04D
:102BDC00070265493B6813430B60634B1B6803F0AA
:102BEC0007033A689A4201D00123B8E07B681B685E
:102BFC0003F00203002B20D07B681B6803F0040356
:102C0C00002B05D0594B5B68584A43F4E063536082
:102C1C007B681B6803F00803002B05D0534B5B68E3
:102C2C00524A43F460535360504B5B6823F0F002FC
:102C3C007B689B684D4913434B607B681B6803F0B2
:102C4C000103002B40D07B685B68012B07D1474BFD
:102C5C001B6803F40033002B15D101237FE07B6844
:102C6C005B68022B07D1414B1B6803F00073002BF0
:102C7C0009D1012373E03D4B1B6803F00203002BC9
:102C8C0001D101236BE0394B5B6823F003027B68B5
:102C9C005B68364913434B60FDF7D6FDF8600AE0DC
:102CAC00FDF7D2FD0246FB68D31A41F288329342FB
:102CBC0001D9032353E02D4B5B6803F00C027B68B6
:102CCC005B689B009A42EBD1274B1B6803F0070310
:102CDC003A689A4210D2244B1B6823F0070222490F
:102CEC003B6813430B60204B1B6803F007033A68E7
:102CFC009A4201D0012332E07B681B6803F0040385
:102D0C00002B08D0194B5B6823F4E0627B68DB680E
:102D1C00164913434B607B681B6803F00803002BB8
:102D2C0009D0124B5B6823F460527B681B69DB0093
:102D3C000E4913434B6000F021F802460B4B5B68C5
:102D4C001B0903F00F030A49CB5C22FA03F3094A6F
:102D5C001360094B1B681846FDF734FD0023184619
:102D6C001037BD4680BD00BF00200240001002405D
:102D7C00182F0008000000200400002080B487B049
:102D8C0000AF0023FB600023BB6000237B610023AA
:102D9C007B6000233B611E4B5B68FB60FB6803F0B0
:102DAC000C03042B02D0082B03D027E0194B3B61FA
:102DBC0027E0FB689B0C03F00F03174AD35C7B6086
:102DCC00FB6803F48033002B10D0114B5B685B0C59
:102DDC0003F00103114AD35CBB607B680D4A03FB13
:102DEC0002F2BB68B2FBF3F37B6104E07B680C4A34
:102DFC0002FB03F37B617B693B6102E0054B3B61AA
:102E0C0000BF3B6918461C37BD4680BC704700BFED
:102E1C000010024000127A00302F0008402F0008EA
:102E2C0000093D0080B400AF024B1B681846BD463C
:102E3C0080BC70470000002080B500AFFFF7F2FFA8
:102E4C000246054B5B681B0A03F007030349CB5C86
:102E5C0022FA03F3184680BD00100240282F000808
:102E6C0080B485B000AF78600A4B1B680A4AA2FB9D
:102E7C0003235B0A7A6802FB03F3FB6000BFFB6869
:102E8C005A1EFA60002BF9D100BF00BF1437BD46A3
:102E9C0080BC704700000020D34D621003460244F2
:102EAC00934200D1704703F8011BF9E770B5002677
:102EBC000C4D0D4C641BA410A64209D100F01AF85D
:102ECC0000260A4D0A4C641BA410A64205D170BD05
:102EDC0055F8043B98470136EEE755F8043B984704
:102EEC000136F2E7442F0008442F0008442F000855
:102EFC00482F0008F8B500BFF8BC08BC9E467047C8
:0C2F0C00F8B500BFF8BC08BC9E4670473A
:102F18000000000000000000010203040607080981
:102F28000000000001020304020304050607080963
:0C2F38000A0B0C0D0E0F1010010200001F
:042F4400310100084F
:042F48000D0100086F
:0C2F4C0000127A001000000001000000DC
:04000005080007598F
:00000001FF
